{
  "_format": "hh-sol-artifact-1",
  "contractName": "Microfinance",
  "sourceName": "contracts/Microfinance.sol",
  "abi": [
    {
      "inputs": [],
      "stateMutability": "nonpayable",
      "type": "constructor"
    },
    {
      "inputs": [],
      "name": "EnforcedPause",
      "type": "error"
    },
    {
      "inputs": [],
      "name": "ExpectedPause",
      "type": "error"
    },
    {
      "inputs": [
        {
          "internalType": "address",
          "name": "owner",
          "type": "address"
        }
      ],
      "name": "OwnableInvalidOwner",
      "type": "error"
    },
    {
      "inputs": [
        {
          "internalType": "address",
          "name": "account",
          "type": "address"
        }
      ],
      "name": "OwnableUnauthorizedAccount",
      "type": "error"
    },
    {
      "anonymous": false,
      "inputs": [
        {
          "indexed": true,
          "internalType": "uint256",
          "name": "loanId",
          "type": "uint256"
        },
        {
          "indexed": true,
          "internalType": "address",
          "name": "borrower",
          "type": "address"
        },
        {
          "indexed": false,
          "internalType": "uint256",
          "name": "amount",
          "type": "uint256"
        }
      ],
      "name": "LoanApproved",
      "type": "event"
    },
    {
      "anonymous": false,
      "inputs": [
        {
          "indexed": true,
          "internalType": "uint256",
          "name": "loanId",
          "type": "uint256"
        },
        {
          "indexed": true,
          "internalType": "address",
          "name": "borrower",
          "type": "address"
        }
      ],
      "name": "LoanRepaid",
      "type": "event"
    },
    {
      "anonymous": false,
      "inputs": [
        {
          "indexed": true,
          "internalType": "uint256",
          "name": "loanId",
          "type": "uint256"
        },
        {
          "indexed": true,
          "internalType": "address",
          "name": "borrower",
          "type": "address"
        },
        {
          "indexed": false,
          "internalType": "uint256",
          "name": "amount",
          "type": "uint256"
        },
        {
          "indexed": false,
          "internalType": "uint256",
          "name": "duration",
          "type": "uint256"
        }
      ],
      "name": "LoanRequested",
      "type": "event"
    },
    {
      "anonymous": false,
      "inputs": [
        {
          "indexed": true,
          "internalType": "address",
          "name": "previousOwner",
          "type": "address"
        },
        {
          "indexed": true,
          "internalType": "address",
          "name": "newOwner",
          "type": "address"
        }
      ],
      "name": "OwnershipTransferred",
      "type": "event"
    },
    {
      "anonymous": false,
      "inputs": [
        {
          "indexed": false,
          "internalType": "address",
          "name": "account",
          "type": "address"
        }
      ],
      "name": "Paused",
      "type": "event"
    },
    {
      "anonymous": false,
      "inputs": [
        {
          "indexed": false,
          "internalType": "address",
          "name": "account",
          "type": "address"
        }
      ],
      "name": "Unpaused",
      "type": "event"
    },
    {
      "inputs": [
        {
          "internalType": "uint256",
          "name": "_loanId",
          "type": "uint256"
        }
      ],
      "name": "approveLoan",
      "outputs": [],
      "stateMutability": "nonpayable",
      "type": "function"
    },
    {
      "inputs": [
        {
          "internalType": "address",
          "name": "",
          "type": "address"
        }
      ],
      "name": "creditScores",
      "outputs": [
        {
          "internalType": "uint256",
          "name": "",
          "type": "uint256"
        }
      ],
      "stateMutability": "view",
      "type": "function"
    },
    {
      "inputs": [
        {
          "internalType": "uint256",
          "name": "_loanId",
          "type": "uint256"
        }
      ],
      "name": "getLoan",
      "outputs": [
        {
          "components": [
            {
              "internalType": "address",
              "name": "borrower",
              "type": "address"
            },
            {
              "internalType": "uint256",
              "name": "amount",
              "type": "uint256"
            },
            {
              "internalType": "uint256",
              "name": "duration",
              "type": "uint256"
            },
            {
              "internalType": "string",
              "name": "purpose",
              "type": "string"
            },
            {
              "internalType": "enum Microfinance.LoanStatus",
              "name": "status",
              "type": "uint8"
            },
            {
              "internalType": "uint256",
              "name": "dueDate",
              "type": "uint256"
            }
          ],
          "internalType": "struct Microfinance.Loan",
          "name": "",
          "type": "tuple"
        }
      ],
      "stateMutability": "view",
      "type": "function"
    },
    {
      "inputs": [],
      "name": "getLoanCount",
      "outputs": [
        {
          "internalType": "uint256",
          "name": "",
          "type": "uint256"
        }
      ],
      "stateMutability": "view",
      "type": "function"
    },
    {
      "inputs": [
        {
          "internalType": "address",
          "name": "_user",
          "type": "address"
        }
      ],
      "name": "getUserCreditScore",
      "outputs": [
        {
          "internalType": "uint256",
          "name": "",
          "type": "uint256"
        }
      ],
      "stateMutability": "view",
      "type": "function"
    },
    {
      "inputs": [
        {
          "internalType": "address",
          "name": "_user",
          "type": "address"
        },
        {
          "internalType": "uint256",
          "name": "_index",
          "type": "uint256"
        }
      ],
      "name": "getUserLoanAtIndex",
      "outputs": [
        {
          "components": [
            {
              "internalType": "address",
              "name": "borrower",
              "type": "address"
            },
            {
              "internalType": "uint256",
              "name": "amount",
              "type": "uint256"
            },
            {
              "internalType": "uint256",
              "name": "duration",
              "type": "uint256"
            },
            {
              "internalType": "string",
              "name": "purpose",
              "type": "string"
            },
            {
              "internalType": "enum Microfinance.LoanStatus",
              "name": "status",
              "type": "uint8"
            },
            {
              "internalType": "uint256",
              "name": "dueDate",
              "type": "uint256"
            }
          ],
          "internalType": "struct Microfinance.Loan",
          "name": "",
          "type": "tuple"
        }
      ],
      "stateMutability": "view",
      "type": "function"
    },
    {
      "inputs": [
        {
          "internalType": "address",
          "name": "_user",
          "type": "address"
        }
      ],
      "name": "getUserLoanCount",
      "outputs": [
        {
          "internalType": "uint256",
          "name": "",
          "type": "uint256"
        }
      ],
      "stateMutability": "view",
      "type": "function"
    },
    {
      "inputs": [
        {
          "internalType": "uint256",
          "name": "",
          "type": "uint256"
        }
      ],
      "name": "loans",
      "outputs": [
        {
          "internalType": "address",
          "name": "borrower",
          "type": "address"
        },
        {
          "internalType": "uint256",
          "name": "amount",
          "type": "uint256"
        },
        {
          "internalType": "uint256",
          "name": "duration",
          "type": "uint256"
        },
        {
          "internalType": "string",
          "name": "purpose",
          "type": "string"
        },
        {
          "internalType": "enum Microfinance.LoanStatus",
          "name": "status",
          "type": "uint8"
        },
        {
          "internalType": "uint256",
          "name": "dueDate",
          "type": "uint256"
        }
      ],
      "stateMutability": "view",
      "type": "function"
    },
    {
      "inputs": [],
      "name": "owner",
      "outputs": [
        {
          "internalType": "address",
          "name": "",
          "type": "address"
        }
      ],
      "stateMutability": "view",
      "type": "function"
    },
    {
      "inputs": [],
      "name": "pause",
      "outputs": [],
      "stateMutability": "nonpayable",
      "type": "function"
    },
    {
      "inputs": [],
      "name": "paused",
      "outputs": [
        {
          "internalType": "bool",
          "name": "",
          "type": "bool"
        }
      ],
      "stateMutability": "view",
      "type": "function"
    },
    {
      "inputs": [],
      "name": "renounceOwnership",
      "outputs": [],
      "stateMutability": "nonpayable",
      "type": "function"
    },
    {
      "inputs": [
        {
          "internalType": "uint256",
          "name": "_loanId",
          "type": "uint256"
        }
      ],
      "name": "repayLoan",
      "outputs": [],
      "stateMutability": "payable",
      "type": "function"
    },
    {
      "inputs": [
        {
          "internalType": "uint256",
          "name": "_amount",
          "type": "uint256"
        },
        {
          "internalType": "uint256",
          "name": "_duration",
          "type": "uint256"
        },
        {
          "internalType": "string",
          "name": "_purpose",
          "type": "string"
        }
      ],
      "name": "requestLoan",
      "outputs": [
        {
          "internalType": "uint256",
          "name": "",
          "type": "uint256"
        }
      ],
      "stateMutability": "nonpayable",
      "type": "function"
    },
    {
      "inputs": [
        {
          "internalType": "address",
          "name": "newOwner",
          "type": "address"
        }
      ],
      "name": "transferOwnership",
      "outputs": [],
      "stateMutability": "nonpayable",
      "type": "function"
    },
    {
      "inputs": [],
      "name": "unpause",
      "outputs": [],
      "stateMutability": "nonpayable",
      "type": "function"
    },
    {
      "inputs": [
        {
          "internalType": "address",
          "name": "",
          "type": "address"
        },
        {
          "internalType": "uint256",
          "name": "",
          "type": "uint256"
        }
      ],
      "name": "userLoans",
      "outputs": [
        {
          "internalType": "uint256",
          "name": "",
          "type": "uint256"
        }
      ],
      "stateMutability": "view",
      "type": "function"
    }
  ],
  "bytecode": "0x60806040523480156200001157600080fd5b5033600073ffffffffffffffffffffffffffffffffffffffff168173ffffffffffffffffffffffffffffffffffffffff1603620000885760006040517f1e4fbdf70000000000000000000000000000000000000000000000000000000081526004016200007f9190620001c3565b60405180910390fd5b6200009981620000ba60201b60201c565b5060008060146101000a81548160ff021916908315150217905550620001e0565b60008060009054906101000a900473ffffffffffffffffffffffffffffffffffffffff169050816000806101000a81548173ffffffffffffffffffffffffffffffffffffffff021916908373ffffffffffffffffffffffffffffffffffffffff1602179055508173ffffffffffffffffffffffffffffffffffffffff168173ffffffffffffffffffffffffffffffffffffffff167f8be0079c531659141344cd1fd0a4f28419497f9722a3daafe3b4186f6b6457e060405160405180910390a35050565b600073ffffffffffffffffffffffffffffffffffffffff82169050919050565b6000620001ab826200017e565b9050919050565b620001bd816200019e565b82525050565b6000602082019050620001da6000830184620001b2565b92915050565b61243480620001f06000396000f3fe6080604052600436106100fe5760003560e01c80638456cb5911610095578063ab7b1c8911610064578063ab7b1c8914610323578063d3602dc61461033f578063d8bad5bd1461037c578063e1ec3c68146103b9578063f2fde38b146103fb576100fe565b80638456cb591461027b5780638da5cb5b14610292578063aa3b6867146102bd578063aadc1ac1146102fa576100fe565b806352196812116100d157806352196812146101d15780635c975abb146101fc578063715018a61461022757806380bb72731461023e576100fe565b80633f4ba83a14610103578063470969731461011a5780634dd601b414610157578063504006ca14610194575b600080fd5b34801561010f57600080fd5b50610118610424565b005b34801561012657600080fd5b50610141600480360381019061013c919061167e565b610436565b60405161014e919061186c565b60405180910390f35b34801561016357600080fd5b5061017e6004803603810190610179919061188e565b610699565b60405161018b91906118ca565b60405180910390f35b3480156101a057600080fd5b506101bb60048036038101906101b691906118e5565b6106e2565b6040516101c8919061186c565b60405180910390f35b3480156101dd57600080fd5b506101e66108a6565b6040516101f391906118ca565b60405180910390f35b34801561020857600080fd5b506102116108b3565b60405161021e919061192d565b60405180910390f35b34801561023357600080fd5b5061023c6108c9565b005b34801561024a57600080fd5b506102656004803603810190610260919061188e565b6108dd565b60405161027291906118ca565b60405180910390f35b34801561028757600080fd5b506102906108f5565b005b34801561029e57600080fd5b506102a7610907565b6040516102b49190611957565b60405180910390f35b3480156102c957600080fd5b506102e460048036038101906102df919061188e565b610930565b6040516102f191906118ca565b60405180910390f35b34801561030657600080fd5b50610321600480360381019061031c91906118e5565b61097c565b005b61033d600480360381019061033891906118e5565b610b3f565b005b34801561034b57600080fd5b5061036660048036038101906103619190611aa7565b610e58565b60405161037391906118ca565b60405180910390f35b34801561038857600080fd5b506103a3600480360381019061039e919061167e565b611127565b6040516103b091906118ca565b60405180910390f35b3480156103c557600080fd5b506103e060048036038101906103db91906118e5565b611158565b6040516103f296959493929190611b6f565b60405180910390f35b34801561040757600080fd5b50610422600480360381019061041d919061188e565b611259565b005b61042c6112df565b610434611366565b565b61043e611578565b600260008473ffffffffffffffffffffffffffffffffffffffff1673ffffffffffffffffffffffffffffffffffffffff1681526020019081526020016000208054905082106104c2576040517f08c379a00000000000000000000000000000000000000000000000000000000081526004016104b990611c23565b60405180910390fd5b6000600260008573ffffffffffffffffffffffffffffffffffffffff1673ffffffffffffffffffffffffffffffffffffffff168152602001908152602001600020838154811061051557610514611c43565b5b906000526020600020015490506001818154811061053657610535611c43565b5b90600052602060002090600602016040518060c00160405290816000820160009054906101000a900473ffffffffffffffffffffffffffffffffffffffff1673ffffffffffffffffffffffffffffffffffffffff1673ffffffffffffffffffffffffffffffffffffffff16815260200160018201548152602001600282015481526020016003820180546105c990611ca1565b80601f01602080910402602001604051908101604052809291908181526020018280546105f590611ca1565b80156106425780601f1061061757610100808354040283529160200191610642565b820191906000526020600020905b81548152906001019060200180831161062557829003601f168201915b505050505081526020016004820160009054906101000a900460ff1660038111156106705761066f61176c565b5b60038111156106825761068161176c565b5b815260200160058201548152505091505092915050565b6000600360008373ffffffffffffffffffffffffffffffffffffffff1673ffffffffffffffffffffffffffffffffffffffff168152602001908152602001600020549050919050565b6106ea611578565b6001805490508210610731576040517f08c379a000000000000000000000000000000000000000000000000000000000815260040161072890611d1e565b60405180910390fd5b6001828154811061074557610744611c43565b5b90600052602060002090600602016040518060c00160405290816000820160009054906101000a900473ffffffffffffffffffffffffffffffffffffffff1673ffffffffffffffffffffffffffffffffffffffff1673ffffffffffffffffffffffffffffffffffffffff16815260200160018201548152602001600282015481526020016003820180546107d890611ca1565b80601f016020809104026020016040519081016040528092919081815260200182805461080490611ca1565b80156108515780601f1061082657610100808354040283529160200191610851565b820191906000526020600020905b81548152906001019060200180831161083457829003601f168201915b505050505081526020016004820160009054906101000a900460ff16600381111561087f5761087e61176c565b5b60038111156108915761089061176c565b5b81526020016005820154815250509050919050565b6000600180549050905090565b60008060149054906101000a900460ff16905090565b6108d16112df565b6108db60006113c8565b565b60036020528060005260406000206000915090505481565b6108fd6112df565b61090561148c565b565b60008060009054906101000a900473ffffffffffffffffffffffffffffffffffffffff16905090565b6000600260008373ffffffffffffffffffffffffffffffffffffffff1673ffffffffffffffffffffffffffffffffffffffff168152602001908152602001600020805490509050919050565b6109846112df565b61098c6114ef565b60018054905081106109d3576040517f08c379a00000000000000000000000000000000000000000000000000000000081526004016109ca90611d1e565b60405180910390fd5b6000600182815481106109e9576109e8611c43565b5b9060005260206000209060060201905060006003811115610a0d57610a0c61176c565b5b8160040160009054906101000a900460ff166003811115610a3157610a3061176c565b5b14610a71576040517f08c379a0000000000000000000000000000000000000000000000000000000008152600401610a6890611d8a565b60405180910390fd5b60018160040160006101000a81548160ff02191690836003811115610a9957610a9861176c565b5b0217905550620151808160020154610ab19190611dd9565b42610abc9190611e1b565b81600501819055508060000160009054906101000a900473ffffffffffffffffffffffffffffffffffffffff1673ffffffffffffffffffffffffffffffffffffffff16827f2b993938baa27c88e77a207903d275c96fa30ae5949a3ea5cd56e466e4f5c8918360010154604051610b3391906118ca565b60405180910390a35050565b610b476114ef565b6001805490508110610b8e576040517f08c379a0000000000000000000000000000000000000000000000000000000008152600401610b8590611d1e565b60405180910390fd5b600060018281548110610ba457610ba3611c43565b5b906000526020600020906006020190503373ffffffffffffffffffffffffffffffffffffffff168160000160009054906101000a900473ffffffffffffffffffffffffffffffffffffffff1673ffffffffffffffffffffffffffffffffffffffff1614610c46576040517f08c379a0000000000000000000000000000000000000000000000000000000008152600401610c3d90611e9b565b60405180910390fd5b60016003811115610c5a57610c5961176c565b5b8160040160009054906101000a900460ff166003811115610c7e57610c7d61176c565b5b14610cbe576040517f08c379a0000000000000000000000000000000000000000000000000000000008152600401610cb590611f07565b60405180910390fd5b8060010154341015610d05576040517f08c379a0000000000000000000000000000000000000000000000000000000008152600401610cfc90611f73565b60405180910390fd5b60028160040160006101000a81548160ff02191690836003811115610d2d57610d2c61176c565b5b0217905550600a600360003373ffffffffffffffffffffffffffffffffffffffff1673ffffffffffffffffffffffffffffffffffffffff1681526020019081526020016000206000828254610d829190611e1b565b925050819055508060000160009054906101000a900473ffffffffffffffffffffffffffffffffffffffff1673ffffffffffffffffffffffffffffffffffffffff16827fe69d7686a8bc68278b8c5419579f91716b3ef2ac2fac0d8cf80b8011f8f458a460405160405180910390a38060010154341115610e54573373ffffffffffffffffffffffffffffffffffffffff166108fc826001015434610e279190611f93565b9081150290604051600060405180830381858888f19350505050158015610e52573d6000803e3d6000fd5b505b5050565b6000610e626114ef565b60008411610ea5576040517f08c379a0000000000000000000000000000000000000000000000000000000008152600401610e9c90612039565b60405180910390fd5b60008311610ee8576040517f08c379a0000000000000000000000000000000000000000000000000000000008152600401610edf906120cb565b60405180910390fd5b6000825111610f2c576040517f08c379a0000000000000000000000000000000000000000000000000000000008152600401610f2390612137565b60405180910390fd5b6000600180549050905060016040518060c001604052803373ffffffffffffffffffffffffffffffffffffffff16815260200187815260200186815260200185815260200160006003811115610f8557610f8461176c565b5b81526020016000815250908060018154018082558091505060019003906000526020600020906006020160009091909190915060008201518160000160006101000a81548173ffffffffffffffffffffffffffffffffffffffff021916908373ffffffffffffffffffffffffffffffffffffffff160217905550602082015181600101556040820151816002015560608201518160030190816110289190612303565b5060808201518160040160006101000a81548160ff021916908360038111156110545761105361176c565b5b021790555060a082015181600501555050600260003373ffffffffffffffffffffffffffffffffffffffff1673ffffffffffffffffffffffffffffffffffffffff1681526020019081526020016000208190806001815401808255809150506001900390600052602060002001600090919091909150553373ffffffffffffffffffffffffffffffffffffffff16817f68595dbe887ae7f496f2c88735019a8918919a1decfdee6bdb460480ab87decb87876040516111149291906123d5565b60405180910390a3809150509392505050565b6002602052816000526040600020818154811061114357600080fd5b90600052602060002001600091509150505481565b6001818154811061116857600080fd5b90600052602060002090600602016000915090508060000160009054906101000a900473ffffffffffffffffffffffffffffffffffffffff16908060010154908060020154908060030180546111bd90611ca1565b80601f01602080910402602001604051908101604052809291908181526020018280546111e990611ca1565b80156112365780601f1061120b57610100808354040283529160200191611236565b820191906000526020600020905b81548152906001019060200180831161121957829003601f168201915b5050505050908060040160009054906101000a900460ff16908060050154905086565b6112616112df565b600073ffffffffffffffffffffffffffffffffffffffff168173ffffffffffffffffffffffffffffffffffffffff16036112d35760006040517f1e4fbdf70000000000000000000000000000000000000000000000000000000081526004016112ca9190611957565b60405180910390fd5b6112dc816113c8565b50565b6112e7611530565b73ffffffffffffffffffffffffffffffffffffffff16611305610907565b73ffffffffffffffffffffffffffffffffffffffff161461136457611328611530565b6040517f118cdaa700000000000000000000000000000000000000000000000000000000815260040161135b9190611957565b60405180910390fd5b565b61136e611538565b60008060146101000a81548160ff0219169083151502179055507f5db9ee0a495bf2e6ff9c91a7834c1ba4fdd244a5e8aa4e537bd38aeae4b073aa6113b1611530565b6040516113be9190611957565b60405180910390a1565b60008060009054906101000a900473ffffffffffffffffffffffffffffffffffffffff169050816000806101000a81548173ffffffffffffffffffffffffffffffffffffffff021916908373ffffffffffffffffffffffffffffffffffffffff1602179055508173ffffffffffffffffffffffffffffffffffffffff168173ffffffffffffffffffffffffffffffffffffffff167f8be0079c531659141344cd1fd0a4f28419497f9722a3daafe3b4186f6b6457e060405160405180910390a35050565b6114946114ef565b6001600060146101000a81548160ff0219169083151502179055507f62e78cea01bee320cd4e420270b5ea74000d11b0c9f74754ebdbfc544b05a2586114d8611530565b6040516114e59190611957565b60405180910390a1565b6114f76108b3565b1561152e576040517fd93c066500000000000000000000000000000000000000000000000000000000815260040160405180910390fd5b565b600033905090565b6115406108b3565b611576576040517f8dfc202b00000000000000000000000000000000000000000000000000000000815260040160405180910390fd5b565b6040518060c00160405280600073ffffffffffffffffffffffffffffffffffffffff168152602001600081526020016000815260200160608152602001600060038111156115c9576115c861176c565b5b8152602001600081525090565b6000604051905090565b600080fd5b600080fd5b600073ffffffffffffffffffffffffffffffffffffffff82169050919050565b6000611615826115ea565b9050919050565b6116258161160a565b811461163057600080fd5b50565b6000813590506116428161161c565b92915050565b6000819050919050565b61165b81611648565b811461166657600080fd5b50565b60008135905061167881611652565b92915050565b60008060408385031215611695576116946115e0565b5b60006116a385828601611633565b92505060206116b485828601611669565b9150509250929050565b6116c78161160a565b82525050565b6116d681611648565b82525050565b600081519050919050565b600082825260208201905092915050565b60005b838110156117165780820151818401526020810190506116fb565b60008484015250505050565b6000601f19601f8301169050919050565b600061173e826116dc565b61174881856116e7565b93506117588185602086016116f8565b61176181611722565b840191505092915050565b7f4e487b7100000000000000000000000000000000000000000000000000000000600052602160045260246000fd5b600481106117ac576117ab61176c565b5b50565b60008190506117bd8261179b565b919050565b60006117cd826117af565b9050919050565b6117dd816117c2565b82525050565b600060c0830160008301516117fb60008601826116be565b50602083015161180e60208601826116cd565b50604083015161182160408601826116cd565b50606083015184820360608601526118398282611733565b915050608083015161184e60808601826117d4565b5060a083015161186160a08601826116cd565b508091505092915050565b6000602082019050818103600083015261188681846117e3565b905092915050565b6000602082840312156118a4576118a36115e0565b5b60006118b284828501611633565b91505092915050565b6118c481611648565b82525050565b60006020820190506118df60008301846118bb565b92915050565b6000602082840312156118fb576118fa6115e0565b5b600061190984828501611669565b91505092915050565b60008115159050919050565b61192781611912565b82525050565b6000602082019050611942600083018461191e565b92915050565b6119518161160a565b82525050565b600060208201905061196c6000830184611948565b92915050565b600080fd5b600080fd5b7f4e487b7100000000000000000000000000000000000000000000000000000000600052604160045260246000fd5b6119b482611722565b810181811067ffffffffffffffff821117156119d3576119d261197c565b5b80604052505050565b60006119e66115d6565b90506119f282826119ab565b919050565b600067ffffffffffffffff821115611a1257611a1161197c565b5b611a1b82611722565b9050602081019050919050565b82818337600083830152505050565b6000611a4a611a45846119f7565b6119dc565b905082815260208101848484011115611a6657611a65611977565b5b611a71848285611a28565b509392505050565b600082601f830112611a8e57611a8d611972565b5b8135611a9e848260208601611a37565b91505092915050565b600080600060608486031215611ac057611abf6115e0565b5b6000611ace86828701611669565b9350506020611adf86828701611669565b925050604084013567ffffffffffffffff811115611b0057611aff6115e5565b5b611b0c86828701611a79565b9150509250925092565b600082825260208201905092915050565b6000611b32826116dc565b611b3c8185611b16565b9350611b4c8185602086016116f8565b611b5581611722565b840191505092915050565b611b69816117c2565b82525050565b600060c082019050611b846000830189611948565b611b9160208301886118bb565b611b9e60408301876118bb565b8181036060830152611bb08186611b27565b9050611bbf6080830185611b60565b611bcc60a08301846118bb565b979650505050505050565b7f496e76616c696420696e64657800000000000000000000000000000000000000600082015250565b6000611c0d600d83611b16565b9150611c1882611bd7565b602082019050919050565b60006020820190508181036000830152611c3c81611c00565b9050919050565b7f4e487b7100000000000000000000000000000000000000000000000000000000600052603260045260246000fd5b7f4e487b7100000000000000000000000000000000000000000000000000000000600052602260045260246000fd5b60006002820490506001821680611cb957607f821691505b602082108103611ccc57611ccb611c72565b5b50919050565b7f496e76616c6964206c6f616e2049440000000000000000000000000000000000600082015250565b6000611d08600f83611b16565b9150611d1382611cd2565b602082019050919050565b60006020820190508181036000830152611d3781611cfb565b9050919050565b7f4c6f616e206973206e6f742070656e64696e6700000000000000000000000000600082015250565b6000611d74601383611b16565b9150611d7f82611d3e565b602082019050919050565b60006020820190508181036000830152611da381611d67565b9050919050565b7f4e487b7100000000000000000000000000000000000000000000000000000000600052601160045260246000fd5b6000611de482611648565b9150611def83611648565b9250828202611dfd81611648565b91508282048414831517611e1457611e13611daa565b5b5092915050565b6000611e2682611648565b9150611e3183611648565b9250828201905080821115611e4957611e48611daa565b5b92915050565b7f4f6e6c7920626f72726f7765722063616e207265706179000000000000000000600082015250565b6000611e85601783611b16565b9150611e9082611e4f565b602082019050919050565b60006020820190508181036000830152611eb481611e78565b9050919050565b7f4c6f616e206973206e6f7420617070726f766564000000000000000000000000600082015250565b6000611ef1601483611b16565b9150611efc82611ebb565b602082019050919050565b60006020820190508181036000830152611f2081611ee4565b9050919050565b7f496e73756666696369656e742072657061796d656e7420616d6f756e74000000600082015250565b6000611f5d601d83611b16565b9150611f6882611f27565b602082019050919050565b60006020820190508181036000830152611f8c81611f50565b9050919050565b6000611f9e82611648565b9150611fa983611648565b9250828203905081811115611fc157611fc0611daa565b5b92915050565b7f4c6f616e20616d6f756e74206d7573742062652067726561746572207468616e60008201527f2030000000000000000000000000000000000000000000000000000000000000602082015250565b6000612023602283611b16565b915061202e82611fc7565b604082019050919050565b6000602082019050818103600083015261205281612016565b9050919050565b7f4c6f616e206475726174696f6e206d757374206265206772656174657220746860008201527f616e203000000000000000000000000000000000000000000000000000000000602082015250565b60006120b5602483611b16565b91506120c082612059565b604082019050919050565b600060208201905081810360008301526120e4816120a8565b9050919050565b7f4c6f616e20707572706f73652063616e6e6f7420626520656d70747900000000600082015250565b6000612121601c83611b16565b915061212c826120eb565b602082019050919050565b6000602082019050818103600083015261215081612114565b9050919050565b60008190508160005260206000209050919050565b60006020601f8301049050919050565b600082821b905092915050565b6000600883026121b97fffffffffffffffffffffffffffffffffffffffffffffffffffffffffffffffff8261217c565b6121c3868361217c565b95508019841693508086168417925050509392505050565b6000819050919050565b60006122006121fb6121f684611648565b6121db565b611648565b9050919050565b6000819050919050565b61221a836121e5565b61222e61222682612207565b848454612189565b825550505050565b600090565b612243612236565b61224e818484612211565b505050565b5b818110156122725761226760008261223b565b600181019050612254565b5050565b601f8211156122b75761228881612157565b6122918461216c565b810160208510156122a0578190505b6122b46122ac8561216c565b830182612253565b50505b505050565b600082821c905092915050565b60006122da600019846008026122bc565b1980831691505092915050565b60006122f383836122c9565b9150826002028217905092915050565b61230c826116dc565b67ffffffffffffffff8111156123255761232461197c565b5b61232f8254611ca1565b61233a828285612276565b600060209050601f83116001811461236d576000841561235b578287015190505b61236585826122e7565b8655506123cd565b601f19841661237b86612157565b60005b828110156123a35784890151825560018201915060208501945060208101905061237e565b868310156123c057848901516123bc601f8916826122c9565b8355505b6001600288020188555050505b505050505050565b60006040820190506123ea60008301856118bb565b6123f760208301846118bb565b939250505056fea2646970667358221220298ca4b016588dea84703cfa8a64fe5de9603d3a7012e4bbcdc3916d2601009e64736f6c63430008140033",
  "linkReferences": {},
  "deployedLinkReferences": {}
}